:02000004080AE8
:1000000000000A08001E0A0800000600060005019C
:080010000402E50C00000000F1
:04001800E81A0A08D0
:10001C0009480A4908B5884205D0094A824202D0EB
:10002C00121A01F08AFC0748074A0021121A01F043
:10003C0092FC064808BD00BF00000020641D0A08A1
:10004C007400002074000020DD040020DD0400207A
:10005C0070B500F0C3FD0025054E064CA41BA4088A
:10006C00AC4200D170BD56F8043B98470135F7E718
:10007C00401D0A08601D0A0800F034B808B500F0ED
:10008C008DF8BDE8084000F061BD00F0D7BB00F072
:10009C00D5BB00F0DBBB0078B0FA80F040097047AC
:1000AC00012303707047000038B50C4C05462068DE
:1000BC0000F032F900222068114600F041F908499D
:1000CC00206800F0B2FC01222068002100F038F911
:1000DC002968206800F0A9FC012038BD78000020B8
:1000EC00FC1A0A0830B51B4B85B01888032101F0A7
:1000FC006BFB194B0321188801F066FB01F032F9F8
:10010C004FF4165101F014F91020FFF7BEFF04460E
:10011C0020B1042314223F2100F096F80F4D204605
:10012C002C6000F0A3F9286800F0B8F8286800F0FB
:10013C00F3F80B4A0B490C4800F0DDFD0B496846FF
:10014C0000F020FC6846FFF7AFFF684600F0D0FBDC
:10015C0005B030BD00000020040000207800002015
:10016C00051B0A08B5000A08D70C0A08121B0A0856
:10017C0038B5046805467CB16368013B63605BB9C4
:10018C00236820469B689847A368013BA3601BB972
:10019C0023682046DB689847284638BD2DE9FF4187
:1001AC001B4B1C4E188801F020FB1B4BB0F10008B8
:1001BC000546188818BF4FF0010801F016FB071E02
:1001CC00044618BF01276DB132785AB9134B02A8F7
:1001DC001B7813498DF800303C2300F083FE03A8F4
:1001EC00FFF7C6FF0F4D6CB12A785AB90B4B02A81A
:1001FC001B780D498DF800303C2300F073FE03A8EA
:10020C00FFF7B6FF86F800802F7004B0BDE8F081D0
:10021C000000002075000020040000207400002065
:10022C001D1B0A0876000020251B0A080022014B22
:10023C001A70704774000020704710B504461021E6
:10024C00FFF727FF204610BD70B50025034E456013
:10025C000660017242738373C57370BD381B0A0844
:10026C0038B504460D4601F039FB217A01F088F9C6
:10027C00022000F01DF901F031FBE17B03682943FA
:10028C009B689847022000F013F901F027FB01F05E
:10029C007FF9BDE83840022000F00AB9082300219C
:1002AC00C373FFF7DDBF38B505460C4641F00401BA
:1002BC00FFF7D6FF012000F0FBF8284604F0FB0105
:1002CC00FFF7CEFFBDE83840322000F0F1B838B56A
:1002DC0004460D46FFF7C4FF29462046BDE83840CA
:1002EC00FFF7E1BF70B50D461446064621F00F012D
:1002FC001143FFF7ECFF44EA05113046BDE87040AE
:10030C00C9B2FFF7E4BF08B50122FFF7EBFF0020ED
:10031C0008BD0022FFF7E6BF08B50121FFF7F9FF82
:10032C00BDE808404FF4FA6000F0C2B808B50221ED
:10033C00FFF7EFFFBDE808404FF4FA6000F0B8B8E3
:10034C007FB5064615460C460C4B0DF1100C0FCB29
:10035C000CE90F00327B04ABAA423CBF02F1FF3226
:10036C00D5B203EB850555F8101C3046214461F0DD
:10037C007F01C9B2FFF7CDFF04B070BD481B0A085E
:10038C0008B5817A41F00402827241F00C01FFF74A
:10039C00C0FF08BD10B5012A88BF417A044684BF4E
:1003AC0041F00801417202732BB1012A02BF437A5A
:1003BC0043F004034372322000F06EFBE17B2046D5
:1003CC00FFF74EFF4FF47A7000F066FB30212046A9
:1003DC00FFF77DFF41F2941000F06AF830212046BF
:1003EC00FFF775FF41F2941000F062F830212046BF
:1003FC00FFF76DFF962000F05BF820462021FFF7F9
:10040C0066FF617A204641F02001FFF782FF04234A
:10041C002046A372FFF7B4FF2046FFF77DFF0223AF
:10042C002046E3720621FFF774FF2046BDE810401A
:10043C00FFF77CBF10B5044601F050FA0A4901F0F1
:10044C0091F801F04BFA012101F090F801F046FA15
:10045C0001F090F800232046A27B617B6372BDE81B
:10046C001040FFF797BF00BFA0860100FFF7E2BF67
:10047C0008B5024B1B689B68019308BDB0010608C8
:10048C0008B5024B1B68DB68019308BDB001060878
:10049C0008B5024B1B685B69019308BDB0010608E7
:1004AC0008B5024B1B685B68019308BD9C010608EC
:1004BC0008B5024B1B68DB68019308BD9C0106085C
:1004CC0008B5024B1B685B69019308BD9C010608CB
:1004DC0008B5024B1B685B6C019308BDD001060884
:1004EC0008B5024B1B689B6C019308BDD001060834
:1004FC0008B5024B1B685B6A019308BDC401060872
:10050C0008B5024B1B689B6A019308BDC401060821
:10051C0008B5024B1B68DB6A019308BDC4010608D1
:10052C0008B5024B1B681B6B019308BDC401060880
:10053C0008B5024B1B685B6B019308BDC401060830
:10054C0008B5024B1B689B6B019308BDC4010608E0
:10055C0008B5024B1B681B6C019308BDC40106084F
:10056C0008B5024B1B681B6E019308BDC40106083D
:10057C0008B5024B1B681B6C019308BDAC01060847
:10058C0008B5024B1B689B6C019308BDAC010608B7
:10059C0008B5024B1B68DB6C019308BDAC01060867
:1005AC0008B5024B1B689B6D019308BDAC01060896
:1005BC0008B5024B1B68DB6D019308BDAC01060846
:1005CC0008B5024B1B681B6E019308BDAC010608F5
:1005DC0008B5024B1B685B6E019308BDAC010608A5
:1005EC0008B5024B1B689B6E019308BDAC01060855
:1005FC0008B5024B1B68DB6E019308BDAC01060805
:10060C0008B5024B1B681B6F019308BDAC010608B3
:10061C0008B5024B1B685B6F019308BDAC01060863
:10062C0008B5034B1B68D3F88030019308BD00005C
:10063C00AC01060808B5024B1B68DB69019308BDC9
:10064C00B401060808B5024B1B681B6A019308BD70
:10065C00B401060808B5024B1B681B68019308BD62
:10066C00D801060808B5024B1B685B68019308BDEE
:10067C00D801060808B5024B1B681B69019308BD1D
:10068C00D801060808B5024B1B685B69019308BDCD
:10069C00D801060808B5024B1B689B69019308BD7D
:1006AC00D801060808B5024B1B68DB69019308BD2D
:1006BC00D801060808B5024B1B681B6A019308BDDC
:1006CC00D801060808B5024B1B689B6C019308BD4A
:1006DC00C001060808B5024B1B685B68019308BD96
:1006EC00A401060808B5024B1B685B69019308BDA1
:1006FC00A401060808B5024B1B68DB6C019308BD0E
:10070C00A401060808B5024B1B685B6D019308BD7C
:10071C00A401060808B5034B1B68D3F8903001936D
:10072C0008BD0000A401060808B5034B1B68D3F8EC
:10073C009C30019308BD0000A401060808B5024BCB
:10074C001B685B68019308BDC801060808B5024B1D
:10075C001B689B68019308BDC801060808B5024BCD
:10076C001B68DB68019308BDC801060808B5024B7D
:10077C001B681B69019308BDC801060808B5024B2C
:10078C001B685B69019308BDC801060808B5024BDC
:10079C001B689B69019308BDC801060808B5024B8C
:1007AC001B68DB69019308BDC801060808B5024B3C
:1007BC001B681B6A019308BDC801060808B5024BEB
:1007CC001B681B6B019308BDC801060808B5024BDA
:1007DC001B685B6B019308BDC801060808B5024B8A
:1007EC001B681B6C019308BDC801060808B5024BB9
:1007FC001B685B6C019308BDC801060808B5024B69
:10080C001B685B68019308BDCC01060808B5024B58
:10081C001B685B69019308BDCC01060808B5024B47
:10082C001B681B6A019308BDCC01060808B5024B76
:10083C001B68DB6B019308BDCC01060808B5024BA5
:10084C001B681B68019308BDA001060808B5024B84
:10085C001B685B68019308BDA001060808B5024B34
:10086C001B689B68019308BDA001060808B5024BE4
:10087C001B68DB6A019308BDA001060808B5024B92
:10088C001B681B6B019308BDA001060808B5024B41
:10089C001B681B6C019308BDA001060808B5024B30
:1008AC001B685B6C019308BDA001060870B500269F
:1008BC0004460D4640F8086FFFF70AFE28462570DF
:1008CC00FFF7B8FE2046666070BD000002220020D3
:1008DC00044B1A60044B054AC3E900009A60FFF709
:1008EC00F9BE00BF880000207C0000200000FFFF44
:1008FC0010B504460068FFF7A9FF204610BD10B5DF
:10090C000446006808B1FFF7A1FF0023C4E90133D6
:10091C00236010BD38B504460D4600680131FFF761
:10092C009DFF10B1C4E90005012038BD10B5036866
:10093C00044623B143688B4201D3012010BD2046ED
:10094C00FFF7E8FF0028F9D0A368002BF5D1226847
:10095C001370F2E770B50E46114604461546FFF7C4
:10096C00E5FF20B92046FFF7CAFF204670BD2A4696
:10097C0031462068A56000F0E0FF00212268A368E2
:10098C00D154F2E738B5002304460D46C0E90033D4
:10099C008360037339B1084601F02FF829460246EB
:1009AC002046FFF7D7FF204638BD884210B50B46CE
:1009BC00044604D0096821B19A68FFF7CBFF2046A2
:1009CC0010BDFFF79CFFFAE7002310B50446C0E901
:1009DC00003383600373FFF7E8FF204610BDF8B5C2
:1009EC0006460D4600248F18BD420CD033683046A5
:1009FC009B6815F8011B9847031E01DB1C44F3E7A9
:100A0C00002C08BF1C462046F8BD70B505460C46A8
:100A1C00084649B100F0F1FF2B68024621462846F2
:100A2C00BDE87040DB68184770BD08B5FFF7EDFFF7
:100A3C0008BD03689B6818470023012A98BF0A2247
:100A4C0030B58BB00C468DF8243009A92546B4FB83
:100A5C00F2F404FB1253DBB2092B94BF303337335F
:100A6C00DBB2AA4201F8013DF0D9FFF7CEFF0BB083
:100A7C0030BD0000014B024A1A6070478C00002008
:100A8C00581B0A08024B1A68024B1A60704700BFC9
:100A9C0008000020900000200021FFF723BE10B5B5
:100AAC008368044613B1032201469847204610BDC3
:100ABC0013B56C460B46024603C884E8030093E862
:100ACC00030082E8030094E8030083E8030002B00B
:100ADC0010BD00000022014B9A607047940000206A
:100AEC00014B1860704700BF0C00002008B5134B79
:100AFC0043B100F037FC03681B699847002801DDFF
:100B0C00AFF300800E4B43B100F09EFE03681B69EF
:100B1C009847002801DDAFF300800A4B0BB1AFF30F
:100B2C000080094B43B100F057FC03681B699847E0
:100B3C00002801DDAFF3008008BD00BF00000000FD
:100B4C0000000000000000000000000008B5FFF7E6
:100B5C00CDFFFFF7B5FC014B186008BD1804002051
:100B6C000548064A08B5121A054900F0E6FE054B81
:100B7C00054A1A6008BD00BF004002400440024014
:100B8C00601D0A08004002401E1C279A002307B56E
:100B9C001A466FF077010093FFF7C6FD03B05DF8BE
:100BAC0004FB000007B543880A2B08D0502B0BD14F
:100BBC00094B1B684BB103B05DF804EB1847FFF70A
:100BCC00E5FF03B05DF804FB00231A466FF07701D4
:100BDC000093FFF7A9FDF4E7A8000020002110B551
:100BEC001148FFF75BFE114B1A68114B9A420CBF70
:100BFC00012200220F4B1A7001D0FFF7B1FFFFF753
:100C0C004FFC044600F0B0FE0B4B13B12046AFF383
:100C1C00008000210848FFF709FEBDE810400021C4
:100C2C000648FFF777BD00BFED0A0A0800400240F6
:100C3C001E1C279AA400002000000000B10B0A081B
:100C4C0070470020704710B504461021FFF721FAB9
:100C5C00204610BD08B5FFF7F6FF08BD002230B5E1
:100C6C004FF69C74026084808D888C800C68858023
:100C7C0004600A6030BD10B504460068FFF7E6FD5D
:100C8C00204610BD38B5C468F4B12378022B03D1CB
:100C9C0004F10C00FFF7EFFF656835B12846FFF74C
:100CAC00FEFE10212846FFF7F4F9A56835B1284659
:100CBC00FFF7F5FE10212846FFF7EBF92046BDE8BB
:100CCC0038401421FFF7E5B938BD10B588B004469B
:100CDC006846FFF757FE694604A8FFF775FE04A89F
:100CEC00A047044604A8FFF703FE6846FFF700FE82
:100CFC00204608B010BD1FB500231024CDE9020119
:100D0C00019269461A461846ADF80230ADF800401B
:100D1C00FFF774FD04B010BD0B6803604B684360B3
:100D2C0013B15A6801325A60704737B504466846A9
:100D3C000D46FFF7F1FF009B019A236000236260D0
:100D4C0001A801930093FFF713FA35B1281DFFF7A3
:100D5C000FFA08212846FFF79CF9204603B030BD56
:100D6C00826810B50AB900F0DFFDC368BDE8104019
:100D7C00184708B5006800F11001FFF7F1FF08BD36
:100D8C00826810B50AB900F0CFFDC368BDE8104009
:100D9C00184708B5006800F11001FFF7F1FF08BD16
:100DAC0038B500230446036010200D46FFF76DF99B
:100DBC0028B10123C0E90133024BC56003602060F8
:100DCC00204638BD801B0A0838B5002383608B6829
:100DDC0004460D462BB102229847EB68E360AB68E2
:100DEC00A360204638BD0000F0B589B004686846A1
:100DFC00FFF734FF4FF00203D4E84F2F002A03D142
:100E0C00C4E8413F0029F7D125D104F10C0569460E
:100E1C002846FFF723FF0123BFF35B8F637000208D
:100E2C00BFF35B8F04F1080353E8006F43E8000243
:100E3C00002AF9D1BFF35B8F6EB1FFF75BFC78B181
:100E4C0029463046FFF78CFF3046FFF728FE10216D
:100E5C003046FFF71EF96846FFF70DFF09B0F0BDED
:100E6C00314602A8FFF7B0FFE068B4F9105008B1A2
:100E7C0000F0A8FD06901020ADF81C50FFF705F906
:100E8C000546E8B1002787601820FFF7FEF80446F6
:100E9C0088B10146876002A8FFF70AFE049BA2688E
:100EAC00A360059B0492E26806A9E36004F11000BC
:100EBC000592FFF7D3FE084B2C60EB60074BAB6041
:100ECC0006A8FFF7D8FE02A8FFF7E9FD0022294685
:100EDC000348FFF717FCB7E77F0D0A0809100A084B
:100EEC00CD140A082DE9F0478AB005460C46174682
:100EFC0098469DF84890FFF789FC07AE824638BBB0
:100F0C004FF62E73059005A93046ADF81830FFF753
:100F1C00A5FE1420FFF7B9F8044648B1022303706C
:100F2C000123C0E901AA437031460C30FFF796FE4D
:100F3C002846214640F8044BFFF732FF3046FFF7B6
:100F4C009AFE05A8FFF797FE28460AB0BDE8F08781
:100F5C000C234FF0000A1420CDE908AA0793FFF7E1
:100F6C0094F8014628B1C0E901AA80F800A080F8E5
:100F7C0001A004A80391FFF713FF1F4B082008934F
:100F8C00FFF783F8824610B103A9FFF7C5FE42466E
:100F9C003946204600965FFA89F3CDF824A0FFF776
:100FAC003DFCB8B9039B5B7803F0FF0293B94FF695
:100FBC009C7305A903A80592ADF81830FFF714FF30
:100FCC0005A8FFF758FE05A80999FFF7AEFE06A87D
:100FDC00FFF7CEF803A905A8FFF79EFE059B069A1E
:100FEC002B6000236A6006A806930593FFF7C0F8F0
:100FFC0004A8FFF7BDF8A7E785100A08012AF8B581
:10100C00054603D10B6803600020F8BD022A10D0FE
:10101C00032AF9D10468002CF6D004F11000FFF774
:10102C002AFE2046FFF73BFD18212046FFF731F83A
:10103C00EAE718200E68FFF728F8044650B131464D
:10104C00FFF7C2FE3069B6F9147008B100F0BAFCB3
:10105C002061A7822C60D7E738B5002383608B68AA
:10106C0004460D462BB102229847EB68E360AB684F
:10107C00A360204638BD0000F0B5044689B00D468B
:10108C0001A81146FFF751FEA4B124B21DB12846A8
:10109C0000F098FC054601A803A90395ADF8104093
:1010AC00FFF7A2FE03A8FFF7E6FD02A8FFF760F822
:1010BC0009B0F0BD0123019DD5E84F2F002A03D1C3
:1010CC00C5E8413F0029F7D1EFD12B73BFF35B8FFC
:1010DC006B70BFF35B8F2B1D53E8006F43E800422E
:1010EC00002AF9D1BFF35B8F002EDED02046FFF72C
:1010FC0001FB074660B1304605F10C01FFF740FEDD
:10110C003046FFF7CCFC10213046FEF7C2FFCCE78F
:10111C00314603A8FFF7A0FF2B7B10208DF81C3065
:10112C00FEF7B3FF0546D0B187601420FEF7ADFF84
:10113C00044678B10146876003A8FFF7B9FC059B0C
:10114C00A268A360069B0592E268E3609DF81C30E0
:10115C0006922374064B2C60EB60064BAB6003A825
:10116C00FFF79DFC002229460348FFF7CBFAC7E79F
:10117C009F0D0A0889110A08CD140A08012A70B5B6
:10118C00044603D10B680360002070BD022A0CD00A
:10119C00032AF9D10468002CF6D02046FFF77FFC17
:1011AC0014212046FEF775FFEEE714200E68FEF7BB
:1011BC006CFF054620B13146FFF74EFF337C2B7494
:1011CC002560E1E77047F8B50E46002400F10807EA
:1011DC00051D17F8011D0A223046FFF72DFCAF4202
:1011EC00044401D12046F8BD002CF2D02E2130460B
:1011FC00FFF71FFC0444ECE710B504461821FEF77A
:10120C0048FF204610BD000010B50446044B1122C7
:10121C00002140F8043B00F09EFB204610BD00BFAF
:10122C009C1B0A080346074A10B543F8042B01F12E
:10123C00100251F8044B914243F8044BF9D10A784F
:10124C001A7010BD9C1B0A08024AC0E90021042236
:10125C00027570479C1B0A0810B59DF8084044EABB
:10126C000324042344EA024444EA01644460037501
:10127C0010BD000013B5044C04609DF810400094A0
:10128C00FFF7EAFF02B010BD9C1B0A0841747047BF
:10129C007047704708B50021007CFFF7FBF940EA66
:1012AC00E07008BD08B50121007CFFF7F3F940EAB6
:1012BC00E07008BD08B5007CFFF7E4F920EAE070A7
:1012CC0008BD08B5007CFFF7D5F920EAE07008BD31
:1012DC0038B50446007C0D46FFF7D4F9002801DC34
:1012EC00607C28B12946207CFFF7DCF920EAE0700D
:1012FC0038BD007CFFF7DEB910B504461421FEF7AB
:10130C00C8FE204610BD704710B54FF47A730446E2
:10131C0008460021C4E90113044B20742360012307
:10132C0011466374FFF796F9204610BDB01B0A08EE
:10133C000022007CFFF796B910B504461422002158
:10134C0000F009FB054B20466360054BE36040F25F
:10135C00011323818123238210BD00BFDC000020F8
:10136C00DD01002030B50E4D87B001A8FFF7E4FF7A
:10137C002978BFF35B8F11F001040ED12846FEF7DC
:10138C008AFE50B1214601AA0648FFF7BDFF284648
:10139C00FEF786FE044800F0CAFA024807B030BDDA
:1013AC00AC000020B40000209D120A0810B50446C1
:1013BC001422002100F0CFFA054B20466360054B48
:1013CC00E36040F2011323818123238210BD00BF0F
:1013DC005E0200205F03002010B50E4C86B001A801
:1013EC00FFF7E4FF2378BFF35B8FDB070ED42046B7
:1013FC00FEF751FE50B1012101AA0748FFF784FF07
:10140C002046FEF74DFE054800F091FA024806B062
:10141C0010BD00BFB0000020C800002013130A0844
:10142C0070474174704708B5007CFFF791F820EACB
:10143C00E07008BD08B5007CFFF762F820EAE070A8
:10144C0008BD08B5007CFFF76BF840EAE07008BDFA
:10145C0008B5007CFFF75CF840EAE07008BD007C42
:10146C00FFF766B870B5467C04460D462EB129468A
:10147C00207CBDE87040FFF73BB8007CFFF768F8B4
:10148C000028F4DC304670BD10B504461421FEF77C
:10149C0000FE204610BD000010B54FF47A730446D0
:1014AC00084611460022C4E90123044B2074236032
:1014BC0001236374FFF754F8204610BDE01B0A08A3
:1014CC0010B5836804460BB900F02EFAC368984730
:1014DC00A3681BB103222146204698472046BDE84D
:1014EC0010401021FEF7D5BD7047F8B506461546DD
:1014FC000C468F18BC4206D0336830469B6814F8F3
:10150C00011B9847F6E72846F8BD0022007CFFF740
:10151C0057B80021007CFFF75BB80021007CFFF777
:10152C005FB80021007CFFF763B80021007CFFF757
:10153C0067B810B504461421FEF7ABFD204610BD6C
:10154C0010B54FF47A73044608460021C4E9011320
:10155C00034B114623602074FFF762F8204610BD40
:10156C00101C0A080022007CFFF702B80022007C45
:10157C00FFF706B80023007C1A461946FFF708B897
:10158C000022007CFFF70CB80022007CFFF710B89B
:10159C000121FFF7F9BF002240681146FFF7E6B8BA
:1015AC00F0B5154689B011220E460446002103A859
:1015BC0000F0D1F9284600F020FA002781B27368B8
:1015CC002846009703AAFFF77DF830B1394620462C
:1015DC00FFF73AFE204609B0F0BD204603A9FFF7FD
:1015EC0021FEF7E7002240681146FFF7DFB8002222
:1015FC0040681146FFF7EAB800224068FFF7DEB8F2
:10160C000022406881F00101FFF7C8B80023406850
:10161C001A461946FFF7BAB8002340681A4619460D
:10162C00FFF7ACB8002240681146FFF78FB80022D4
:10163C0002214068FFF792B8002340681A46FFF772
:10164C007DB800000422024B5A60024A1A607047AF
:10165C00E0030020381C0A08002340681A46FFF7F4
:10166C006DB8002202214068FFF778B8002240686C
:10167C001146FFF76BB8002240681146FFF776B8A9
:10168C00002340681A461946FFF778B800234068D3
:10169C001A461946FFF77AB800214068FFF79EB842
:1016AC0000214068FFF7A2B80022406881F00101D8
:1016BC00FFF774B800224068FFF780B8002240683A
:1016CC001146FFF783B8002240681146FFF76EB849
:1016DC0070B515468EB0044608A8FFF795FD11228B
:1016EC00002103A800F037F90026284600F085F900
:1016FC000A4B009681B25B68284603AAFEF7E2FF0C
:10170C0030B131462046FFF79FFD20460EB070BD2C
:10171C00204603A9FFF786FDF7E700BFE003002092
:10172C00024B034A1A6000225A607047E8030020FB
:10173C00741C0A08024B986808B1FEF7D1BE7047BA
:10174C00F4030020172870B5044601D9002070BDA1
:10175C00A0F10D03022B0BD9012824D800F0BEF800
:10176C000021007CFEF754FF80F00100C0B2EEE7D0
:10177C00124E3178BFF35B8F11F001050DD130465D
:10178C00FEF789FC48B129460D48FFF78FF8304623
:10179C00FEF786FC0B4800F0CAF8094B1878FEF7E8
:1017AC0051FF0028D2D1123C012C05D800F04CF886
:1017BC00007CFEF7C5FED7E70120C8E7F003002048
:1017CC00F403002041170A08172838B504460D46C3
:1017DC000AD8FF2908D0FFF7B5FF28B129462046C3
:1017EC00BDE83840FEF744BE38BD10B50446FEF7E0
:1017FC0047FE031FDBB2012B08D92046FFF7A2FFDF
:10180C0020B12046BDE81040FEF742BE002010BDBE
:10181C007047000070B5142504462A46002100F0DC
:10182C009AF825808025074E284631462581258249
:10183C0000F078F831466060284600F073F8E060FC
:10184C00204670BDA81C0A0830B50E4D87B029780B
:10185C00BFF35B8F11F0010411D12846FEF71BFC7E
:10186C0068B101A8FFF7D6FF214601AA0648FFF789
:10187C0013FE2846FEF714FC044800F058F8024802
:10188C0007B030BD00040020040400201D180A0815
:10189C00002307B51A46194600930348FFF7EAFCE4
:1018AC0003B05DF804FB00BF1C040020704700006F
:1018BC0070B514232025084E04460360314685601C
:1018CC000561284600F02EF831466060284600F08D
:1018DC0029F8E060204670BDA81C0A0830B50E4DF2
:1018EC0087B02978BFF35B8F11F0010411D1284622
:1018FC00FEF7D1FB68B101A8FFF7DAFF214601AA78
:10190C000648FFF71DFE2846FEF7CAFB044800F008
:10191C000EF8024807B030BD340400203804002013
:10192C00B9180A08FEF7B3BB08B5FEF79FFF0023F2
:10193C0001461A46184600F069B80A44914200F173
:10194C00FF3300D1704710B511F8014B914203F8E9
:10195C00014FF9D110BD03460244934200D17047A8
:10196C0003F8011BF9E7000038B5104B04461D685D
:10197C00AB6BB3B91820FEF761FF0246A86320B920
:10198C0042210B4B0B48FEF781FF0B490B4BC0E977
:10199C0000130B4B002183600B2383810120C2E9D0
:1019AC0004010022AB6B1C615A6138BD0C00002095
:1019BC00A91C0A08C01C0A080E33CDAB34126DE604
:1019CC00ECDE0500024B0146186800F003B800BFBE
:1019DC000C00002070B5044608460D4600F00DF8CA
:1019EC00461C31462046FEF749FF044618B13246E4
:1019FC002946FFF7A2FF204670BD034613F8012BC2
:101A0C00002AFBD1181A0138704700002DE9F84361
:101A1C00DFF8AC800646D8F800001F460D4691460C
:101A2C0000F058F8274B1C6834B9274C1C60274B26
:101A3C0013B11B68C4F8883063681F2B07DDD8F816
:101A4C00000000F049F84FF0FF30BDE8F8835EB3BA
:101A5C00D4F8880088B91E4B23B9D8F8000000F0E0
:101A6C003AF8F0E74FF48470FEF7E8FE0028F4D063
:101A7C000023C0E94033C4F8880001226368022EB9
:101A8C0040F8239002FA03F200EB8301D0F8003106
:101A9C0043EA0203C0F80031C1F8807002BFD0F8ED
:101AAC0004311343C0F804316368D8F800005A1CA1
:101ABC000233626044F8235000F00EF80020C4E7B3
:101ACC0070000020D80400204C040020000000000E
:101ADC0049080A0870477047704700001D000A0843
:101AEC005D000A0885000A0889000A080000000049
:101AFC00416E737765723A2000616572536574416B
:101B0C006E737765720057616974696E672E2E2E3D
:101B1C0000436F727265637400496E636F72726515
:101B2C0063740000000000000000000045020A0879
:101B3C0047020A0813030A08EB090A080000000010
:101B4C0040000000140000005400000061707000A0
:101B5C0025592D256D2D25645425483A254D3A25BA
:101B6C0053257A0061736374696D65000000000091
:101B7C00000000004D0C0A08530C0A08910C0A08CE
:101B8C00610C0A084F0C0A0800000000000000005D
:101B9C00D3110A08D1110A0805120A080000000026
:101BAC00000000009F120A0805130A08DD120A083B
:101BBC00EB090A08CF120A08A1120A08B1120A0886
:101BCC00FF120A08C1120A0899120A080000000044
:101BDC00000000002D140A0895140A0871140A0854
:101BEC00EB090A0841140A085D140A084F140A0884
:101BFC006B140A082F140A0833140A08000000009A
:101C0C0000000000F5140A083F150A0817150A0809
:101C1C00F7140A081F150A0827150A082F150A08B1
:101C2C0037150A08000000000000000045160A08DD
:101C3C003B160A0831160A08A3150A0825160A08C5
:101C4C0019160A08A5160A08AD160A080D160A0870
:101C5C0005160A08FB150A08F1150A08AD150A083D
:101C6C00000000000000000065160A086F160A0844
:101C7C0079160A0883160A088D160A0899160A0896
:101C8C00A5160A08AD160A08B5160A08C1160A08E0
:101C9C00C9160A08D3160A08DD160A08005245456B
:101CAC004E54206D616C6C6F632073756363656556
:101CBC00646564002F6D6E742F776F726B73706137
:101CCC0063652F776F726B73706163652F47434346
:101CDC002D31302D706970656C696E652F6A656E7B
:101CEC006B696E732D4743432D31302D70697065D0
:101CFC006C696E652D34385F3230323031313234AC
:101D0C005F313630363138303634312F7372632FC1
:101D1C006E65776C69622F6E65776C69622F6C6982
:101D2C0062632F7374646C69622F72616E642E63CC
:101D3C000000000039020A08D9080A08810A0A08BA
:101D4C00910A0A08E10A0A0851160A082D170A080E
:041D5C009D180A08BC
:041D6000000000007F
:101D64000300000002000000701B0A08100000209D
:101D7400000000000000000000000000000000005F
:101D8400000000000000000000000000000000004F
:101D9400000000000000000000000000000000003F
:101DA400000000000000000000000000000000002F
:101DB400000000000000000000000000000000001F
:101DC400000000000000000000000000000000000F
:041DD400DC0400200B
:101DD800FFFFFFFF00000102030405060708090AC8
:101DE8000B0C0D0E0F101112131415161718191AC3
:081DF8001B1C1D1E1F2028000A
:041E000078563412CA
:04000005080A001CC9
:00000001FF
