:02000004080AE8
:1000000000000A08FC2E0A08000006000600050190
:080010000402E50C00000000F1
:04001800A02A0A0808
:10001C0009480A4908B5884205D0094A824202D0EB
:10002C00121A02F0E1FB0748074A0021121A02F0EB
:10003C00E9FB064808BD00BF00000020642E0A083A
:10004C007000002070000020090500200905002028
:10005C0070B500F09BFF0025054E064CA41BA408B0
:10006C00AC4200D170BD56F8043B98470135F7E718
:10007C00282E0A08542E0A0800F062B808B500F0C1
:10008C009FF8BDE8084000F039BF00F067BC00F0F5
:10009C0065BC00F06BBC0078B0FA80F0400970478A
:1000AC000123037070470000024B034A01201A60C1
:1000BC00704700BF800000200000A04008B500F091
:1000CC0026FD024B1860012008BD00BF84000020F3
:1000DC001FB501F01FFB174900F057FD01F01AFB8B
:1000EC00044600F097FE01F04DFF0B46022102463C
:1000FC000091204600F041FE0F4B00221B780F4967
:10010C008DF8003002A83C2301F0C4F8039C7CB1AC
:10011C006368013B63605BB9236820469B68984722
:10012C00A368013BA3601BB923682046DB68984792
:10013C0004B010BDB42A0A0870000020D02A0A08A6
:10014C0038B5184B0321188801F016FD0121072042
:10015C0001F012FD01F0DEFA4FF4165101F0C0FA75
:10016C001020FFF792FF044620B1042314223F21F4
:10017C0000F0B4F80C4D20462C6000F0C1F9286852
:10018C0000F0D6F8286800F011F9084A0849094827
:10019C0000F089FFBDE83840074A0849054800F0DF
:1001AC0082BF00BF0000002078000020DE2A0A0871
:1001BC00B5000A0887100A08EC2A0A08C9000A08C0
:1001CC002DE9F84300F0DCF9334A344D14682B6800
:1001DC00041B23442B60324B1060188801F0DDFCAB
:1001EC00002814BF012700272E4E03D033780BB9FB
:1001FC00FFF76EFF37702C4E00213768384602F03F
:10020C00DFFA002842D0384601F0CEFE8046204668
:10021C00894601F0A7FE0022244B02F047F8024663
:10022C000B464046494601F05FFD02F00DFA2B6883
:10023C003060642B2ED91E4C206800F0B7F80122D8
:10024C000021206800F0C6F81A49206800F08AFCEA
:10025C00194B27681D68002D1ADA2D21384600F03D
:10026C0085FC69420A22384600F099FC022220687B
:10027C00002100F0AFF81149206800F073FC3168E0
:10028C0020680222BDE8F84300F068BD0020CEE7EC
:10029C002946E7E7BDE8F883740000207C000020C5
:1002AC0000000020710000208000002000408F40E2
:1002BC0078000020F82A0A0884000020002B0A0885
:1002CC000022014B1A70704770000020704710B567
:1002DC0004461021FFF7DDFE204610BD70B5002549
:1002EC00034E45600660017242738373C57370BD23
:1002FC00102B0A0838B504460D4601F0C7FC217ACC
:10030C0001F016FB022000F033F901F0BFFCE17B99
:10031C00036829439B689847022000F029F901F0F3
:10032C00B5FC01F00DFBBDE83840022000F020B90F
:10033C0008230021C373FFF7DDBF38B505460C4613
:10034C0041F00401FFF7D6FF012000F011F9284617
:10035C0004F0FB01FFF7CEFFBDE83840322000F07F
:10036C0007B938B504460D46FFF7C4FF29462046A9
:10037C00BDE83840FFF7E1BF70B50D4614460646A0
:10038C0021F00F011143FFF7ECFF44EA0511304651
:10039C00BDE87040C9B2FFF7E4BF08B50122FFF712
:1003AC00EBFF002008BD0022FFF7E6BF08B50121D6
:1003BC00FFF7F9FFBDE808404FF4FA6000F0D8B839
:1003CC0008B50221FFF7EFFFBDE808404FF4FA60D3
:1003DC0000F0CEB87FB5064615460C460C4B0DF119
:1003EC00100C0FCB0CE90F00327B04ABAA423CBFC4
:1003FC0002F1FF32D5B203EB850555F8101C3046DF
:10040C00214461F07F01C9B2FFF7CDFF04B070BD8C
:10041C00202B0A0808B5817A41F00402827241F05F
:10042C000C01FFF7C0FF08BD10B5012A88BF417A47
:10043C00044684BF41F00801417202732BB1012ABA
:10044C0002BF437A43F004034372322000F0FCFCF9
:10045C00E17B2046FFF74EFF4FF47A7000F0F4FC7E
:10046C0030212046FFF77DFF41F2941000F080F818
:10047C0030212046FFF775FF41F2941000F078F818
:10048C0030212046FFF76DFF962000F071F82046D2
:10049C002021FFF766FF617A204641F02001FFF72B
:1004AC0082FF04232046A372FFF7B4FF2046FFF718
:1004BC007DFF02232046E3720621FFF774FF2046DE
:1004CC00BDE81040FFF77CBF10B5044601F0DEFB21
:1004DC000A4901F01FFA01F0D9FB012101F01EFAC3
:1004EC0001F0D4FB01F01EFA00232046A27B617BB5
:1004FC006372BDE81040FFF797BF00BFA0860100F4
:10050C00FFF7E2BF0022024BC3E90022704700BF95
:10051C00880000200022024BC3E90022704700BF74
:10052C00900000200022014B1A70704798000020A8
:10053C0008B5024B1B689B68019308BDB001060807
:10054C0008B5024B1B68DB68019308BDB0010608B7
:10055C0008B5024B1B685B69019308BDB001060826
:10056C0008B5024B1B685B68019308BD9C0106082B
:10057C0008B5024B1B68DB68019308BD9C0106089B
:10058C0008B5024B1B685B69019308BD9C0106080A
:10059C0008B5024B1B689B6D019308BD9C010608B6
:1005AC0008B5024B1B685B6E019308BD9C010608E5
:1005BC0008B5024B1B685B6C019308BDD0010608A3
:1005CC0008B5024B1B689B6C019308BDD001060853
:1005DC0008B5024B1B685B6A019308BDC401060891
:1005EC0008B5024B1B689B6A019308BDC401060841
:1005FC0008B5024B1B68DB6A019308BDC4010608F1
:10060C0008B5024B1B681B6B019308BDC40106089F
:10061C0008B5024B1B685B6B019308BDC40106084F
:10062C0008B5024B1B689B6B019308BDC4010608FF
:10063C0008B5024B1B681B6C019308BDC40106086E
:10064C0008B5024B1B681B6E019308BDC40106085C
:10065C0008B5024B1B681B6C019308BDAC01060866
:10066C0008B5024B1B689B6C019308BDAC010608D6
:10067C0008B5024B1B68DB6C019308BDAC01060886
:10068C0008B5024B1B689B6D019308BDAC010608B5
:10069C0008B5024B1B68DB6D019308BDAC01060865
:1006AC0008B5024B1B681B6E019308BDAC01060814
:1006BC0008B5024B1B685B6E019308BDAC010608C4
:1006CC0008B5024B1B689B6E019308BDAC01060874
:1006DC0008B5024B1B68DB6E019308BDAC01060824
:1006EC0008B5024B1B681B6F019308BDAC010608D3
:1006FC0008B5024B1B685B6F019308BDAC01060883
:10070C0008B5034B1B68D3F88030019308BD00007B
:10071C00AC01060808B5024B1B68DB69019308BDE8
:10072C00B401060808B5024B1B681B6A019308BD8F
:10073C00B401060808B5024B1B681B68019308BD81
:10074C00D801060808B5024B1B685B68019308BD0D
:10075C00D801060808B5024B1B681B69019308BD3C
:10076C00D801060808B5024B1B685B69019308BDEC
:10077C00D801060808B5024B1B689B69019308BD9C
:10078C00D801060808B5024B1B68DB69019308BD4C
:10079C00D801060808B5024B1B681B6A019308BDFB
:1007AC00D801060808B5024B1B689B6C019308BD69
:1007BC00C001060808B5024B1B681B68019308BDF5
:1007CC00A401060808B5024B1B685B68019308BDC1
:1007DC00A401060808B5024B1B685B69019308BDB0
:1007EC00A401060808B5024B1B68DB6C019308BD1D
:1007FC00A401060808B5024B1B685B6D019308BD8C
:10080C00A401060808B5024B1B689B6D019308BD3B
:10081C00A401060808B5034B1B68D3F8903001936C
:10082C0008BD0000A401060808B5034B1B68D3F8EB
:10083C009C30019308BD0000A401060808B5024BCA
:10084C001B685B68019308BDC801060808B5024B1C
:10085C001B689B68019308BDC801060808B5024BCC
:10086C001B68DB68019308BDC801060808B5024B7C
:10087C001B681B69019308BDC801060808B5024B2B
:10088C001B685B69019308BDC801060808B5024BDB
:10089C001B689B69019308BDC801060808B5024B8B
:1008AC001B68DB69019308BDC801060808B5024B3B
:1008BC001B681B6A019308BDC801060808B5024BEA
:1008CC001B681B6B019308BDC801060808B5024BD9
:1008DC001B685B6B019308BDC801060808B5024B89
:1008EC001B681B6C019308BDC801060808B5024BB8
:1008FC001B685B6C019308BDC801060808B5024B68
:10090C001B685B68019308BDCC01060808B5024B57
:10091C001B689B68019308BDCC01060808B5024B07
:10092C001B685B69019308BDCC01060808B5024B36
:10093C001B681B6A019308BDCC01060808B5024B65
:10094C001B681B6B019308BDCC01060808B5024B54
:10095C001B68DB6B019308BDCC01060808B5024B84
:10096C001B681B68019308BDA001060808B5024B63
:10097C001B685B68019308BDA001060808B5024B13
:10098C001B689B68019308BDA001060808B5024BC3
:10099C001B68DB6A019308BDA001060808B5024B71
:1009AC001B681B6B019308BDA001060808B5024B20
:1009BC001B68DB6B019308BDA001060808B5024B50
:1009CC001B681B6C019308BDA001060808B5024BFF
:1009DC001B685B6C019308BDA001060870B500266E
:1009EC0004460D4640F8086FFFF7E2FD28462570D7
:1009FC00FFF790FE2046666070BD000002220020CA
:100A0C00044B1A60044B054AC3E900009A60FFF7D7
:100A1C00D9BE00BFB4000020A80000200000FFFFDA
:100A2C0010B504460068FFF7A1FF204610BD10B5B5
:100A3C000446006808B1FFF799FF0023C4E90133AD
:100A4C00236010BD38B504460D4600680131FFF730
:100A5C0095FF10B1C4E90005012038BD10B503683D
:100A6C00044623B143688B4201D3012010BD2046BC
:100A7C00FFF7E8FF0028F9D0A368002BF5D1226816
:100A8C001370F2E770B50E46114604461546FFF793
:100A9C00E5FF20B92046FFF7CAFF204670BD2A4665
:100AAC0031462068A56001F09FFE00212268A368F2
:100ABC00D154F2E738B5002304460D46C0E90033A3
:100ACC008360037339B1084601F0EDFE29460246F6
:100ADC002046FFF7D7FF204638BD884210B50B469D
:100AEC00044604D0096821B19A68FFF7CBFF204671
:100AFC0010BDFFF79CFFFAE7002310B50446C0E9D0
:100B0C00003383600373FFF7E8FF204610BD0068D5
:100B1C0008B101F065BE7047F8B506460D460024D5
:100B2C008F18BD420CD0336830469B6815F8011BFA
:100B3C009847031E01DB1C44F3E7002C08BF1C463E
:100B4C002046F8BD70B505460C46084649B101F083
:100B5C00AAFE2B68024621462846BDE87040DB6899
:100B6C00184770BD08B5FFF7EDFF08BD03689B681B
:100B7C00184738B50D210546FFF7F8FF0A21044642
:100B8C002846FFF7F3FF204438BD38B50546FFF77C
:100B9C00D9FF04462846FFF7ECFF204438BD00235C
:100BAC00012A98BF0A2230B58BB00C468DF8243040
:100BBC0009A92546B4FBF2F404FB1253DBB2092B52
:100BCC0094BF30333733DBB2AA4201F8013DF0D980
:100BDC00FFF7B8FF0BB030BD2DE9F74F05461946AE
:100BEC00104692461F469DF8306001F0CFFC40B194
:100BFC0051492846FFF7A6FF0446204603B0BDE83E
:100C0C00F08F27F000444FF0FF32504621464B4BFB
:100C1C0001F0BCFC48B94FF0FF3250462146474B1F
:100C2C0001F096FC08B94649E3E74FF060425046A4
:100C3C003946444B01F0A0FC08B14349D9E74FF0C9
:100C4C00604250463946414B01F078FC0028F4D103
:100C5C00002200235046394601F070FC044630B1A6
:100C6C002D212846FFF782FF044607F100474FF07D
:100C7C00000B00204FF000083549DFF8D8905FFAE0
:100C8C008BF39E4206D942464B4601F00FFB0BF10B
:100C9C00010BF4E73B46524601F028F889468046A2
:100CAC0001F0B2FC074601F05DF902460B464046E6
:100CBC00494601F019F80A228046894628463946E9
:100CCC00FFF76DFF0444002E97D028462249FFF70A
:100CDC0039FF4FF0000ADFF87CB00444002E8CD0B2
:100CEC0052465B464046494601F0B6F98046894675
:100CFC0001F062FC071E1BDA2D212846FFF736FF98
:100D0C00034679420A2228460193FFF748FF019BCC
:100D1C00013E034438461C4401F034F902460B46AC
:100D2C004046494600F0E0FFF6B280468946D5E7DA
:100D3C0039460023E6E700BF302B0A08FFFFEF7FA0
:100D4C00342B0A08FFFFEF41382B0A08FFFFEFC1D5
:100D5C000000E03F000024403C2B0A0837B5054654
:100D6C001446084601F020F9E4B202460B46284628
:100D7C000094FFF731FF03B030BD9DF800100091D7
:100D8C00FFF72ABF38B5046805467CB16368013BA0
:100D9C0063605BB9236820469B689847A368013B56
:100DAC00A3601BB923682046DB689847284638BDEA
:100DBC00014B024A1A607047B80000203E2B0A080B
:100DCC0008B50020FFF7BAFD28B1FFF7A7FD80F0AA
:100DDC000100C0B208BD0120FCE710B50020FFF7F0
:100DEC00D7FB0446A0B9FFF7E5FC012810D120463B
:100DFC00FFF708FD60B9FFF7E3FF10B9FFF786FDB9
:100E0C00F9E7FFF7DDFFBDE810400020FFF7C0BB9E
:100E1C00204610BD1FB5FFF7E0FF102200216846E9
:100E2C0001F0F0FC00216846FFF7BAFB009805B012
:100E3C005DF804FB024B1A68024B1A60704700BF46
:100E4C0004000020BC0000200021FFF7C3BC10B53B
:100E5C008368044613B1032201469847204610BD0F
:100E6C0013B56C460B46024603C884E8030093E8AE
:100E7C00030082E8030094E8030083E8030002B057
:100E8C0010BD00000022014B9A607047C00000208A
:100E9C00014B1860704700BF0800002008B5134BC9
:100EAC0043B100F037FC03681B699847002801DD4B
:100EBC00AFF300800E4B43B100F09EFE03681B693C
:100ECC009847002801DDAFF300800A4B0BB1AFF35C
:100EDC000080094B43B100F057FC03681B6998472D
:100EEC00002801DDAFF3008008BD00BF000000004A
:100EFC0000000000000000000000000008B5FFF733
:100F0C00CDFFFFF73DFB014B186008BD44040020EA
:100F1C000548064A08B5121A054901F065FC054B4F
:100F2C00054A1A6008BD00BF004002400440024060
:100F3C00602E0A08004002401E1C279A002307B5A9
:100F4C001A466FF077010093FFF76EFC03B05DF863
:100F5C0004FB000007B543880A2B08D0502B0BD19B
:100F6C00094B1B684BB103B05DF804EB1847FFF756
:100F7C00E5FF03B05DF804FB00231A466FF0770120
:100F8C000093FFF751FCF4E7D4000020002110B5CA
:100F9C001148FFF71BFD114B1A68114B9A420CBFFD
:100FAC00012200220F4B1A7001D0FFF7B1FFFFF79F
:100FBC00D7FA044601F02EFC0B4B13B12046AFF3CD
:100FCC00008000210848FFF7C1FCBDE8104000215B
:100FDC000648FFF71FBC00BF9D0E0A0800400240E8
:100FEC001E1C279AD000002000000000610F0A0888
:100FFC0070470020704710B504461021FFF749F8E0
:10100C00204610BD08B5FFF7F6FF08BD002230B52D
:10101C004FF69C74026084808D888C800C6885806F
:10102C0004600A6030BD10B504460068FFF79EFCF2
:10103C00204610BD38B5C468F4B12378022B03D117
:10104C0004F10C00FFF7EFFF656835B12846FFF798
:10105C00FEFE10212846FFF71CF8A56835B128467E
:10106C00FFF7F5FE10212846FFF713F82046BDE8E0
:10107C0038401421FFF70DB838BD10B588B00446C0
:10108C006846FFF717FD694604A8FFF735FD04A86D
:10109C00A047044604A8FFF7C3FC6846FFF7C0FC52
:1010AC00204608B010BD1FB500231024CDE9020165
:1010BC00019269461A461846ADF80230ADF8004068
:1010CC00FFF71CFC04B010BD0B6803604B68436059
:1010DC0013B15A6801325A60704737B504466846F6
:1010EC000D46FFF7F1FF009B019A2360002362601D
:1010FC0001A801930093FFF745FE35B1281DFFF7BA
:10110C0041FE08212846FEF7C4FF204603B030BD3F
:10111C00826810B50AB900F0DFFDC368BDE8104065
:10112C00184708B5006800F11001FFF7F1FF08BD82
:10113C00826810B50AB900F0CFFDC368BDE8104055
:10114C00184708B5006800F11001FFF7F1FF08BD62
:10115C0038B500230446036010200D46FEF795FFBA
:10116C0028B10123C0E90133024BC5600360206044
:10117C00204638BD682B0A0838B5002383608B687D
:10118C0004460D462BB102229847EB68E360AB682E
:10119C00A360204638BD0000F0B589B004686846ED
:1011AC00FFF734FF4FF00203D4E84F2F002A03D18E
:1011BC00C4E8413F0029F7D125D104F10C0569465B
:1011CC002846FFF723FF0123BFF35B8F63700020DA
:1011DC00BFF35B8F04F1080353E8006F43E8000290
:1011EC00002AF9D1BFF35B8F6EB1FFF7FBFA78B130
:1011FC0029463046FFF78CFF3046FFF728FE1021BA
:10120C003046FEF746FF6846FFF70DFF09B0F0BD0C
:10121C00314602A8FFF7B0FFE068B4F9105008B1EE
:10122C0001F026FB06901020ADF81C50FEF72DFFA8
:10123C000546E8B1002787601820FEF726FF044614
:10124C0088B10146876002A8FFF70AFE049BA268DA
:10125C00A360059B0492E26806A9E36004F1100008
:10126C000592FFF7D3FE084B2C60EB60074BAB608D
:10127C0006A8FFF7D8FE02A8FFF7E9FD00222946D1
:10128C000348FFF7B7FAB7E72F110A08B9130A0892
:10129C007D180A082DE9F0478AB005460C4617461A
:1012AC0098469DF84890FFF739FB07AE824638BB4D
:1012BC004FF62E73059005A93046ADF81830FFF7A0
:1012CC00A5FE1420FEF7E1FE044648B1022303708C
:1012DC000123C0E901AA437031460C30FFF796FE9A
:1012EC002846214640F8044BFFF732FF3046FFF703
:1012FC009AFE05A8FFF797FE28460AB0BDE8F087CE
:10130C000C234FF0000A1420CDE908AA0793FEF72E
:10131C00BCFE014628B1C0E901AA80F800A080F803
:10132C0001A004A80391FFF713FF1F4B082008939B
:10133C00FEF7ABFE824610B103A9FFF7C5FE42468D
:10134C003946204600965FFA89F3CDF824A0FFF7C2
:10135C00EDFAB8B9039B5B7803F0FF0293B94FF633
:10136C009C7305A903A80592ADF81830FFF714FF7C
:10137C0005A8FFF758FE05A80999FFF7AEFE06A8C9
:10138C00FFF700FD03A905A8FFF79EFE059B069A33
:10139C002B6000236A6006A806930593FFF7F2FC06
:1013AC0004A8FFF7EFFCA7E735140A08012AF8B5E3
:1013BC00054603D10B6803600020F8BD022A10D04B
:1013CC00032AF9D10468002CF6D004F11000FFF7C1
:1013DC002AFE2046FFF73BFD18212046FEF759FE5A
:1013EC00EAE718200E68FEF750FE044650B131466D
:1013FC00FFF7C2FE3069B6F9147008B101F038FA83
:10140C002061A7822C60D7E738B5002383608B68F6
:10141C0004460D462BB102229847EB68E360AB689B
:10142C00A360204638BD0000F0B5044689B00D46D7
:10143C0001A81146FFF751FEA4B124B21DB12846F4
:10144C0001F016FA054601A803A90395ADF8104062
:10145C00FFF7A2FE03A8FFF7E6FD02A8FFF792FC38
:10146C0009B0F0BD0123019DD5E84F2F002A03D10F
:10147C00C5E8413F0029F7D1EFD12B73BFF35B8F48
:10148C006B70BFF35B8F2B1D53E8006F43E800427A
:10149C00002AF9D1BFF35B8F002EDED02046FFF778
:1014AC00A1F9074660B1304605F10C01FFF740FE8B
:1014BC003046FFF7CCFC10213046FEF7EAFDCCE7B6
:1014CC00314603A8FFF7A0FF2B7B10208DF81C30B2
:1014DC00FEF7DBFD0546D0B187601420FEF7D5FD85
:1014EC00044678B10146876003A8FFF7B9FC059B59
:1014FC00A268A360069B0592E268E3609DF81C302D
:10150C0006922374064B2C60EB60064BAB6003A871
:10151C00FFF79DFC002229460348FFF76BF9C7E74C
:10152C004F110A0839150A087D180A08012A70B5E6
:10153C00044603D10B680360002070BD022A0CD056
:10154C00032AF9D10468002CF6D02046FFF77FFC63
:10155C0014212046FEF79DFDEEE714200E68FEF7E1
:10156C0094FD054620B13146FFF74EFF337C2B74BA
:10157C002560E1E77047F8B50E46002400F1080736
:10158C00051D17F8011D0A223046FFF708FBAF4274
:10159C00044401D12046F8BD002CF2D02E21304657
:1015AC00FFF7E4FA0444ECE710B504461821FEF703
:1015BC0070FD204610BD000010B50446044B1122EE
:1015CC00002140F8043B01F01DF9204610BD00BF7E
:1015DC00842B0A080346074A10B543F8042B01F183
:1015EC00100251F8044B914243F8044BF9D10A789C
:1015FC001A7010BD842B0A08024AC0E9002104228B
:10160C0002757047842B0A0810B59DF8084044EA0F
:10161C000324042344EA024444EA0164446003754D
:10162C0010BD000013B5044C04609DF810400094EC
:10163C00FFF7EAFF02B010BD842B0A084174704713
:10164C007047704708B50021007CFFF793F840EA1B
:10165C00E07008BD08B50121007CFFF78BF840EA6B
:10166C00E07008BD08B5007CFFF77CF820EAE0705C
:10167C0008BD08B5007CFFF76DF820EAE07008BDE6
:10168C0038B50446007C0D46FFF76CF8002801DCE9
:10169C00607C28B12946207CFFF774F820EAE070C2
:1016AC0038BD007CFFF776B810B504461421FEF760
:1016BC00F0FC204610BD704710B54FF47A73044609
:1016CC0008460021C4E90113044B20742360012354
:1016DC0011466374FFF72EF8204610BD982B0A08AC
:1016EC000022007CFFF72EB810B50446142200210E
:1016FC0001F088F8054B20466360054BE36040F22F
:10170C00011323818123238210BD00BF0801002017
:10171C000902002030B50E4D87B001A8FFF7E4FF99
:10172C002978BFF35B8F11F001040ED12846FEF728
:10173C00B2FC50B1214601AA0648FFF7BDFF28466E
:10174C00FEF7AEFC044801F045F8024807B030BD86
:10175C00D8000020E00000204D160A0810B5044601
:10176C001422002101F04EF8054B20466360054B16
:10177C00E36040F2011323818123238210BD00BF5B
:10178C008A0200208B03002010B50E4C86B001A8F5
:10179C00FFF7E4FF2378BFF35B8FDB070ED4204603
:1017AC00FEF779FC50B1012101AA0748FFF784FF2D
:1017BC002046FEF775FC054801F00CF8024806B00F
:1017CC0010BD00BFDC000020F4000020C3160A0886
:1017DC0070474174704708B5007CFEF729FF20EA7A
:1017EC00E07008BD08B5007CFEF7FAFE20EAE07058
:1017FC0008BD08B5007CFEF703FF40EAE07008BDA9
:10180C0008B5007CFEF7F4FE40EAE07008BD007CF1
:10181C00FEF7FEBE70B5467C04460D462EB1294639
:10182C00207CBDE87040FEF7D3BE007CFEF700FFC5
:10183C000028F4DC304670BD10B504461421FEF7C8
:10184C0028FC204610BD000010B54FF47A730446F6
:10185C00084611460022C4E90123044B207423607E
:10186C0001236374FEF7ECFE204610BDC82B0A085A
:10187C0010B5836804460BB900F02EFAC36898477C
:10188C00A3681BB103222146204698472046BDE899
:10189C0010401021FEF7FDBB7047F8B50646154603
:1018AC000C468F18BC4206D0336830469B6814F83F
:1018BC00011B9847F6E72846F8BD0022007CFEF78E
:1018CC00EFBE0021007CFEF7F3BE0021007CFEF78A
:1018DC00F7BE0021007CFEF7FBBE0021007CFEF76A
:1018EC00FFBE10B504461421FEF7D3FB204610BDF5
:1018FC0010B54FF47A73044608460021C4E901136D
:10190C00034B114623602074FEF7FAFE204610BDEF
:10191C00F82B0A080022007CFEF79ABE0022007CFD
:10192C00FEF79EBE0023007C1A461946FEF7A0BEA9
:10193C000022007CFEF7A4BE0022007CFEF7A8BEAD
:10194C000121FFF7F9BF002240681146FEF78EBF58
:10195C00F0B5154689B011220E460446002103A8A5
:10196C0000F050FF284600F09EFF002781B27368FC
:10197C002846009703AAFEF715FF30B139462046DA
:10198C00FFF73AFE204609B0F0BD204603A9FFF749
:10199C0021FEF7E7002240681146FEF787BF0022C0
:1019AC0040681146FEF792BF00224068FEF786BFE2
:1019BC000022406881F00101FEF770BF00234068EF
:1019CC001A461946FEF762BF002340681A461946AC
:1019DC00FEF754BF002240681146FEF737BF0022C5
:1019EC0002214068FEF73ABF002340681A46FEF712
:1019FC0025BF00000422024B5A60024A1A6070474D
:101A0C000C040020202C0A08002340681A46FEF71C
:101A1C0015BF002202214068FEF720BF002240685B
:101A2C001146FEF713BF002240681146FEF71EBF99
:101A3C00002340681A461946FEF720BF0023406871
:101A4C001A461946FEF722BF00214068FEF746BF32
:101A5C0000214068FEF74ABF0022406881F0010176
:101A6C00FEF71CBF00224068FEF728BF002240682A
:101A7C001146FEF72BBF002240681146FEF716BF39
:101A8C0070B515468EB0044608A8FFF795FD1122D7
:101A9C00002103A800F0B6FE0026284600F003FF44
:101AAC000A4B009681B25B68284603AAFEF77AFEC1
:101ABC0030B131462046FFF79FFD20460EB070BD79
:101ACC00204603A9FFF786FDF7E700BF0C040020B2
:101ADC00024B034A1A6000225A607047140400201B
:101AEC005C2C0A08024B986808B1FEF769BD704778
:101AFC0020040020172870B5044601D9002070BDC1
:101B0C00A0F10D03022B0BD9012824D800F0BEF84C
:101B1C000021007CFEF7ECFD80F00100C0B2EEE786
:101B2C00124E3178BFF35B8F11F001050DD13046A9
:101B3C00FEF7B1FA48B129460D48FEF74FFF304683
:101B4C00FEF7AEFA0B4800F045FE094B1878FEF78D
:101B5C00E9FD0028D2D1123C012C05D800F04CF83C
:101B6C00007CFEF75DFDD7E70120C8E71C040020D0
:101B7C0020040020F11A0A08172838B504460D462F
:101B8C000AD8FF2908D0FFF7B5FF28B1294620460F
:101B9C00BDE83840FEF7CCBC38BD10B50446FEF7A6
:101BAC00CFFC031FDBB2012B08D92046FFF7A2FFA5
:101BBC0020B12046BDE81040FEF7CABC002010BD85
:101BCC007047000070B5142504462A46002100F029
:101BDC0019FE25808025074E284631462581258211
:101BEC0000F078F831466060284600F073F8E06049
:101BFC00204670BD902C0A0830B50E4D87B0297860
:101C0C00BFF35B8F11F0010411D12846FEF743FAA4
:101C1C0068B101A8FFF7D6FF214601AA0648FFF7D5
:101C2C0013FE2846FEF73CFA044800F0D3FD0248A8
:101C3C0007B030BD2C04002030040020CD1B0A0856
:101C4C00002307B51A46194600930348FFF7EAFC30
:101C5C0003B05DF804FB00BF48040020704700008F
:101C6C0070B514232025084E044603603146856068
:101C7C000561284600F02EF831466060284600F0D9
:101C8C0029F8E060204670BD902C0A0830B50E4D46
:101C9C0087B02978BFF35B8F11F0010411D128466E
:101CAC00FEF7F9F968B101A8FFF7DAFF214601AA9E
:101CBC000648FFF71DFE2846FEF7F2F9044800F02F
:101CCC0089FD024807B030BD600400206404002088
:101CDC00691C0A08FEF7DBB908B5FEF757FE0000D1
:101CEC0081F0004102E000BF83F0004330B54FEAC1
:101CFC0041044FEA430594EA050F08BF90EA020F2E
:101D0C001FBF54EA000C55EA020C7FEA645C7FEAC0
:101D1C00655C00F0E2804FEA5454D4EB5555B8BFE3
:101D2C006D420CDD2C4480EA020281EA030382EA54
:101D3C00000083EA010180EA020281EA0303362DE6
:101D4C0088BF30BD11F0004F4FEA01314FF4801CB9
:101D5C004CEA113102D0404261EB410113F0004FCB
:101D6C004FEA03334CEA133302D0524263EB430382
:101D7C0094EA050F00F0A780A4F10104D5F1200E20
:101D8C000DDB02FA0EFC22FA05F2801841F100017B
:101D9C0003FA0EF2801843FA05F359410EE0A5F14F
:101DAC0020050EF1200E012A03FA0EFC28BF4CF080
:101DBC00020C43FA05F3C01851EBE37101F0004536
:101DCC0007D54FF0000EDCF1000C7EEB00006EEB43
:101DDC000101B1F5801F1BD3B1F5001F0CD34908CD
:101DEC005FEA30004FEA3C0C04F101044FEA445224
:101DFC0012F5800F80F09A80BCF1004F08BF5FEAAB
:101E0C00500C50F1000041EB045141EA050130BD8A
:101E1C005FEA4C0C404141EB0101013C28BFB1F59C
:101E2C00801FE9D291F0000F04BF01460020B1FAE7
:101E3C0081F308BF2033A3F10B03B3F120020CDABA
:101E4C000C3208DD02F1140CC2F10C0201FA0CF098
:101E5C0021FA02F10CE002F11402D8BFC2F1200CFD
:101E6C0001FA02F120FA0CFCDCBF41EA0C019040B3
:101E7C00E41AA2BF01EB0451294330BD6FEA0404FC
:101E8C001F3C1CDA0C340EDC04F11404C4F12002E7
:101E9C0020FA04F001FA02F340EA030021FA04F3F9
:101EAC0045EA030130BDC4F10C04C4F1200220FA50
:101EBC0002F001FA04F340EA0300294630BD21FA8E
:101ECC0004F0294630BD94F0000F83F4801306BF54
:101EDC0081F480110134013D4EE77FEA645C18BF48
:101EEC007FEA655C29D094EA050F08BF90EA020FDF
:101EFC0005D054EA000C04BF1946104630BD91EAD7
:101F0C00030F1EBF0021002030BD5FEA545C05D1D9
:101F1C004000494128BF41F0004130BD14F5800418
:101F2C003CBF01F5801130BD01F0004545F0FE418C
:101F3C0041F470014FF0000030BD7FEA645C1ABFC1
:101F4C00194610467FEA655C1CBF0B46024650EAF8
:101F5C00013406BF52EA033591EA030F41F4002124
:101F6C0030BD00BF90F0000F04BF0021704730B5AA
:101F7C004FF4806404F132044FF000054FF000017F
:101F8C0050E700BF90F0000F04BF0021704730B540
:101F9C004FF4806404F1320410F0004548BF404215
:101FAC004FF000013EE700BF42004FEAE2014FEA6A
:101FBC0031014FEA02701FBF12F07F4393F07F4F45
:101FCC0081F06051704732F07F4208BF704793F048
:101FDC007F4F04BF41F40021704730B54FF460745B
:101FEC0001F0004521F000411CE700BF50EA01025E
:101FFC0008BF704730B54FF000050AE050EA010207
:10200C0008BF704730B511F0004502D5404261EB76
:10201C0041014FF4806404F132045FEA915C3FF4B7
:10202C00D8AE4FF003025FEADC0C18BF03325FEA54
:10203C00DC0C18BF033202EBDC02C2F1200300FA05
:10204C0003FC20FA02F001FA03FE40EA0E0021FA2A
:10205C0002F11444BDE600BF70B54FF0FF0C4CF418
:10206C00E06C1CEA11541DBF1CEA135594EA0C0FCA
:10207C0095EA0C0F00F0DEF82C4481EA030621EA05
:10208C004C5123EA4C5350EA013518BF52EA033540
:10209C0041F4801143F4801338D0A0FB02CE4FF0F2
:1020AC000005E1FB02E506F00042E0FB03E54FF022
:1020BC000006E1FB03569CF0000F18BF4EF0010E1A
:1020CC00A4F1FF04B6F5007F64F5407404D25FEA16
:1020DC004E0E6D4146EB060642EAC62141EA5551C9
:1020EC004FEAC52040EA5E504FEACE2EB4F1FD0C0B
:1020FC0088BFBCF5E06F1ED8BEF1004F08BF5FEA89
:10210C00500E50F1000041EB045170BD06F000463A
:10211C0046EA010140EA020081EA0301B4EB5C04E7
:10212C00C2BFD4EB0C0541EA045170BD41F48011DF
:10213C004FF0000E013C00F3AB8014F1360FDEBF04
:10214C00002001F0004170BDC4F10004203C35DAE0
:10215C000C341BDC04F11404C4F1200500FA05F363
:10216C0020FA04F001FA05F240EA020001F0004204
:10217C0021F0004110EBD37021FA04F642EB06017A
:10218C005EEA430E08BF20EAD37070BDC4F10C04A4
:10219C00C4F1200500FA04F320FA05F001FA04F268
:1021AC0040EA020001F0004110EBD37041F1000154
:1021BC005EEA430E08BF20EAD37070BDC4F120055F
:1021CC0000FA05F24EEA020E20FA04F301FA05F2C7
:1021DC0043EA020321FA04F001F0004121FA04F26F
:1021EC0020EA020000EBD3705EEA430E08BF20EA3F
:1021FC00D37070BD94F0000F0FD101F00046400079
:10220C0041EB010111F4801F08BF013CF7D041EAFA
:10221C00060195F0000F18BF704703F000465200FE
:10222C0043EB030313F4801F08BF013DF7D043EACF
:10223C000603704794EA0C0F0CEA135518BF95EA85
:10224C000C0F0CD050EA410618BF52EA4306D1D10C
:10225C0081EA030101F000414FF0000070BD50EA2B
:10226C00410606BF1046194652EA430619D094EAB5
:10227C000C0F02D150EA013613D195EA0C0F05D19F
:10228C0052EA03361CBF104619460AD181EA0301F3
:10229C0001F0004141F0FE4141F470014FF00000AB
:1022AC0070BD41F0FE4141F4780170BD70B54FF046
:1022BC00FF0C4CF4E06C1CEA11541DBF1CEA1355C6
:1022CC0094EA0C0F95EA0C0F00F0A7F8A4EB0504A8
:1022DC0081EA030E52EA03354FEA013100F088809F
:1022EC004FEA03334FF0805545EA131343EA126368
:1022FC004FEA022245EA111545EA10654FEA00261D
:10230C000EF000419D4208BF964244F1FD0404F5D5
:10231C00407402D25B084FEA3202B61A65EB030531
:10232C005B084FEA32024FF480104FF4002CB6EBEE
:10233C00020E75EB030E22BFB61A754640EA0C006E
:10234C005B084FEA3202B6EB020E75EB030E22BFAE
:10235C00B61A754640EA5C005B084FEA3202B6EBEF
:10236C00020E75EB030E22BFB61A754640EA9C00AE
:10237C005B084FEA3202B6EB020E75EB030E22BF7E
:10238C00B61A754640EADC0055EA060E18D04FEA3C
:10239C00051545EA16754FEA06164FEAC30343EADC
:1023AC0052734FEAC2025FEA1C1CC0D111F4801FA9
:1023BC000BD141EA00014FF000004FF0004CB6E7A2
:1023CC0011F4801F04BF01430020B4F1FD0C88BF41
:1023DC00BCF5E06F3FF6AFAEB5EB030C04BFB6EB4C
:1023EC00020C5FEA500C50F1000041EB045170BD3F
:1023FC000EF0004E4EEA113114EB5C04C2BFD4EB6C
:10240C000C0541EA045170BD41F480114FF0000EEF
:10241C00013C90E645EA060E8DE60CEA135594EA6B
:10242C000C0F08BF95EA0C0F3FF43BAF94EA0C0F6E
:10243C000AD150EA01347FF434AF95EA0C0F7FF4E3
:10244C0025AF104619462CE795EA0C0F06D152EA37
:10245C0003353FF4FDAE1046194622E750EA41061B
:10246C0018BF52EA43067FF4C5AE50EA41047FF42C
:10247C000DAF52EA43057FF4EBAE12E74FF0FF3C91
:10248C0006E000BF4FF0010C02E000BF4FF0010C62
:10249C004DF804CD4FEA410C7FEA6C5C4FEA430CDB
:1024AC0018BF7FEA6C5C1BD001B050EA410C0CBF2A
:1024BC0052EA430C91EA030F02BF90EA020F00208C
:1024CC00704710F1000F91EA030F58BF994208BFF3
:1024DC0090422CBFD8176FEAE37040F001007047B0
:1024EC004FEA410C7FEA6C5C02D150EA013C07D107
:1024FC004FEA430C7FEA6C5CD6D152EA033CD3D052
:10250C005DF8040B704700BF8446104662468C464B
:10251C001946634600E000BF01B5FFF7B7FF00287E
:10252C0048BF10F1000F01BD4DF808EDFFF7F4FFA7
:10253C000CBF012000205DF808FB00BF4DF808ED32
:10254C00FFF7EAFF34BF012000205DF808FB00BF55
:10255C004DF808EDFFF7E0FF94BF012000205DF877
:10256C0008FB00BF4DF808EDFFF7CEFF94BF01202C
:10257C0000205DF808FB00BF4DF808EDFFF7C4FF25
:10258C0034BF012000205DF808FB00BF4FEA410C6E
:10259C007FEA6C5C02D150EA013C0AD14FEA430C51
:1025AC007FEA6C5C02D152EA033C02D14FF000008E
:1025BC0070474FF0010070474FEA410212F50012CC
:1025CC0015D211D56FF47873B3EB625212D94FEA6E
:1025DC00C12343F0004343EA505311F0004F23FA58
:1025EC0002F018BF404270474FF00000704750EAAD
:1025FC00013005D111F0004008BF6FF0004070476A
:10260C004FF00000704700BF4A0011D212F50012C3
:10261C0011D20DD56FF47873B3EB62520ED44FEA2E
:10262C00C12343F0004343EA505323FA02F07047AE
:10263C004FF00000704750EA013002D14FF0FF30EC
:10264C0070474FF0000070474FEA4102B2F1E0438F
:10265C0024BFB3F5001CDCF1FE5C0DD901F0004C7D
:10266C004FEAC0024CEA5070B2F1004F40EB8300CD
:10267C0008BF20F00100704711F0804F21D113F1F9
:10268C003872BCBF01F00040704741F480114FEA32
:10269C005252C2F11802C2F1200C10FA0CF320FABB
:1026AC0002F018BF40F001004FEAC1234FEAD323D8
:1026BC0003FA0CFC40EA0C0023FA02F34FEA430342
:1026CC00CCE77FEA625307D150EA01331EBF4FF0CB
:1026DC00FE4040F44000704701F0004040F0FE40E6
:1026EC0040F40000704700BF4FF0FF3C06E000BF15
:1026FC004FF0010C02E000BF4FF0010C4DF804CD7F
:10270C004FEA40024FEA41037FEA226C18BF7FEA8E
:10271C00236C11D001B052EA530C18BF90EA010F90
:10272C0058BFB2EB030088BFC81738BF6FEAE1701F
:10273C0018BF40F0010070477FEA226C02D15FEABB
:10274C00402C05D17FEA236CE4D15FEA412CE1D027
:10275C005DF8040B704700BF844608466146FFE7EE
:10276C000FB5FFF7C9FF002848BF10F1000F0FBDD0
:10277C004DF808EDFFF7F4FF0CBF012000205DF8C9
:10278C0008FB00BF4DF808EDFFF7EAFF34BF01204E
:10279C0000205DF808FB00BF4DF808EDFFF7E0FFE7
:1027AC0094BF012000205DF808FB00BF4DF808ED38
:1027BC00FFF7D2FF94BF012000205DF808FB00BF9B
:1027CC004DF808EDFFF7C8FF34BF012000205DF87D
:1027DC0008FB00BF002301461A46184600F0F2B869
:1027EC000A22002100F0E4B80A44914200F1FF33C0
:1027FC0000D1704710B511F8014B914203F8014F0D
:10280C00F9D110BD03460244934200D1704703F83E
:10281C00011BF9E738B5104B04461D68AB6BB3B917
:10282C001820FEF79BF80246A86320B942210B4BF7
:10283C000B48FEF7C3F80B490B4BC0E900130B4BCD
:10284C00002183600B2383810120C2E90401002253
:10285C00AB6B1C615A6138BD08000020912C0A0832
:10286C00A82C0A080E33CDAB34126DE6ECDE050055
:10287C00024B0146186800F003B800BF08000020A6
:10288C0070B5044608460D4600F00DF8461C31465E
:10289C002046FEF783F8044618B132462946FFF766
:1028AC00A3FF204670BD034613F8012B002AFBD171
:1028BC00181A013870470000012B2DE9F0478046AB
:1028CC0001D0242B06D9FEF771F8162303600020E3
:1028DC00BDE8F0870D46354F284615F8014BE65DEF
:1028EC0016F00806F8D12D2C2FD101262C78851C3A
:1028FC00002B57D0102B09D1302C07D1287800F0A1
:10290C00DF00582849D110236C780235002706F1D6
:10291C00004E0EF1FF3EBEFBF3F9384603FB19EAFD
:10292C00A4F1300CBCF1090F14D86446A34222DD8B
:10293C00002F1DDB81451BD301D1A24518DB0127DC
:10294C0000FB034015F8014BEAE72B2C04BF2C7855
:10295C00851CCDE7A4F1410CBCF1190F01D8373C13
:10296C00E4E7A4F1610CBCF1190F04D8573CDDE786
:10297C004FF0FF37E6E7002F07DA22237046C8F83E
:10298C000030002AA4D0691E05E006B14042002A9E
:10299C009ED0002FF7D111609AE73024002BB5D1CF
:1029AC000823B3E7302CA9D00A23AFE7262D0A0859
:1029BC0013460A46014602480068FFF77DBF00BF78
:1029CC00080000202DE9F843DFF8AC800646D8F863
:1029DC0000001F460D46914600F058F8274B1C6826
:1029EC0034B9274C1C60274B13B11B68C4F88830D2
:1029FC0063681F2B07DDD8F8000000F049F84FF092
:102A0C00FF30BDE8F8835EB3D4F8880088B91E4B5C
:102A1C0023B9D8F8000000F03AF8F0E74FF48470CE
:102A2C00FDF79CFF0028F4D00023C0E94033C4F824
:102A3C00880001226368022E40F8239002FA03F208
:102A4C0000EB8301D0F8003143EA0203C0F80031F7
:102A5C00C1F8807002BFD0F804311343C0F80431C0
:102A6C006368D8F800005A1C0233626044F82350A3
:102A7C0000F00EF80020C4E76C00002004050020D4
:102A8C00780400200000000069090A0870477047AC
:102A9C00704700001D000A085D000A0885000A083E
:102AAC0089000A0800000000596F75207072657368
:102ABC007365642074686520627574746F6E212070
:102ACC003A292000427574746F6E50726573736589
:102ADC006400616572537461727454696D6572003F
:102AEC0061657253657453636F72650053636F72E3
:102AFC00653A200054696D653A2000000000000022
:102B0C0000000000D9020A08DB020A08A7030A0821
:102B1C00250B0A0800000000400000001400000013
:102B2C00540000006E616E00696E66006F76660080
:102B3C002E006170700025592D256D2D25645425AE
:102B4C00483A254D3A2553257A0061736374696DB3
:102B5C00650000000000000000000000FD0F0A08E6
:102B6C0003100A0841100A0811100A08FF0F0A087E
:102B7C00000000000000000083150A0881150A08F7
:102B8C00B5150A0800000000000000004F160A08E6
:102B9C00B5160A088D160A08250B0A087F160A08AE
:102BAC0051160A0861160A08AF160A0871160A08A7
:102BBC0049160A080000000000000000DD170A0892
:102BCC0045180A0821180A08250B0A08F1170A08E3
:102BDC000D180A08FF170A081B180A08DF170A083D
:102BEC00E3170A080000000000000000A5180A08FE
:102BFC00EF180A08C7180A08A7180A08CF180A08F5
:102C0C00D7180A08DF180A08E7180A08000000009D
:102C1C0000000000F5190A08EB190A08E1190A0866
:102C2C0053190A08D5190A08C9190A08551A0A08A5
:102C3C005D1A0A08BD190A08B5190A08AB190A0861
:102C4C00A1190A085D190A08000000000000000024
:102C5C00151A0A081F1A0A08291A0A08331A0A0828
:102C6C003D1A0A08491A0A08551A0A085D1A0A0870
:102C7C00651A0A08711A0A08791A0A08831A0A08C6
:102C8C008D1A0A08005245454E54206D616C6C6FCC
:102C9C006320737563636565646564002F6D6E7482
:102CAC002F776F726B73706163652F776F726B73B5
:102CBC00706163652F4743432D31302D706970650A
:102CCC006C696E652F6A656E6B696E732D47434335
:102CDC002D31302D706970656C696E652D34385FDF
:102CEC0032303230313132345F3136303631383087
:102CFC003634312F7372632F6E65776C69622F6E69
:102D0C0065776C69622F6C6962632F7374646C698C
:102D1C00622F72616E642E63000020202020202020
:102D2C00202020282828282820202020202020206F
:102D3C00202020202020202020208810101010106F
:102D4C0010101010101010101010040404040404BF
:102D5C0004040404101010101010104141414141A2
:102D6C004101010101010101010101010101010107
:102D7C000101010101101010101010424242424298
:102D8C0042020202020202020202020202020202D7
:102D9C0002020202021010101020000000000000BD
:102DAC000000000000000000000000000000000017
:102DBC000000000000000000000000000000000007
:102DCC0000000000000000000000000000000000F7
:102DDC0000000000000000000000000000000000E7
:102DEC0000000000000000000000000000000000D7
:102DFC0000000000000000000000000000000000C7
:102E0C0000000000000000000000000000000000B6
:102E1C00000000000000000000000000CD020A08C5
:102E2C0011050A0821050A0831050A08090A0A08C9
:102E3C00BD0D0A08410E0A08910E0A08011A0A086B
:102E4C00DD1A0A084D1C0A080000000000000000F2
:042E5C000000000072
:042E6000000000006E
:102E640006000000562B0A080C0000200000000099
:102E7400000000000000000000000000000000004E
:102E8400000000000000000000000000000000003E
:102E9400000000000000000000000000000000002E
:102EA400000000000000000000000000000000001E
:102EB400000000000000000000000000000000000E
:102EC40000000000000000000000000008050020D1
:102ED400FFFFFFFF00000102030405060708090ABB
:102EE4000B0C0D0E0F101112131415161718191AB6
:082EF4001B1C1D1E1F202800FD
:042EFC0078563412BE
:04000005080A001CC9
:00000001FF
